{
  "_format": "hh-sol-artifact-1",
  "contractName": "AirDrop",
  "sourceName": "contracts/SmartDrop.sol",
  "abi": [
    {
      "inputs": [
        {
          "internalType": "string",
          "name": "name",
          "type": "string"
        },
        {
          "internalType": "string",
          "name": "symbol",
          "type": "string"
        },
        {
          "internalType": "uint256",
          "name": "totalSupply",
          "type": "uint256"
        }
      ],
      "stateMutability": "nonpayable",
      "type": "constructor"
    },
    {
      "anonymous": false,
      "inputs": [
        {
          "indexed": true,
          "internalType": "address",
          "name": "owner",
          "type": "address"
        },
        {
          "indexed": true,
          "internalType": "address",
          "name": "spender",
          "type": "address"
        },
        {
          "indexed": false,
          "internalType": "uint256",
          "name": "value",
          "type": "uint256"
        }
      ],
      "name": "Approval",
      "type": "event"
    },
    {
      "anonymous": false,
      "inputs": [
        {
          "indexed": true,
          "internalType": "address",
          "name": "previousOwner",
          "type": "address"
        },
        {
          "indexed": true,
          "internalType": "address",
          "name": "newOwner",
          "type": "address"
        }
      ],
      "name": "OwnershipTransferred",
      "type": "event"
    },
    {
      "anonymous": false,
      "inputs": [
        {
          "indexed": true,
          "internalType": "address",
          "name": "from",
          "type": "address"
        },
        {
          "indexed": true,
          "internalType": "address",
          "name": "to",
          "type": "address"
        },
        {
          "indexed": false,
          "internalType": "uint256",
          "name": "value",
          "type": "uint256"
        }
      ],
      "name": "Transfer",
      "type": "event"
    },
    {
      "stateMutability": "payable",
      "type": "fallback"
    },
    {
      "inputs": [
        {
          "internalType": "address",
          "name": "owner",
          "type": "address"
        },
        {
          "internalType": "address",
          "name": "spender",
          "type": "address"
        }
      ],
      "name": "allowance",
      "outputs": [
        {
          "internalType": "uint256",
          "name": "",
          "type": "uint256"
        }
      ],
      "stateMutability": "view",
      "type": "function"
    },
    {
      "inputs": [
        {
          "internalType": "address",
          "name": "spender",
          "type": "address"
        },
        {
          "internalType": "uint256",
          "name": "amount",
          "type": "uint256"
        }
      ],
      "name": "approve",
      "outputs": [
        {
          "internalType": "bool",
          "name": "",
          "type": "bool"
        }
      ],
      "stateMutability": "nonpayable",
      "type": "function"
    },
    {
      "inputs": [
        {
          "internalType": "address",
          "name": "account",
          "type": "address"
        }
      ],
      "name": "balanceOf",
      "outputs": [
        {
          "internalType": "uint256",
          "name": "",
          "type": "uint256"
        }
      ],
      "stateMutability": "view",
      "type": "function"
    },
    {
      "inputs": [],
      "name": "decimals",
      "outputs": [
        {
          "internalType": "uint8",
          "name": "",
          "type": "uint8"
        }
      ],
      "stateMutability": "view",
      "type": "function"
    },
    {
      "inputs": [
        {
          "internalType": "address",
          "name": "spender",
          "type": "address"
        },
        {
          "internalType": "uint256",
          "name": "subtractedValue",
          "type": "uint256"
        }
      ],
      "name": "decreaseAllowance",
      "outputs": [
        {
          "internalType": "bool",
          "name": "",
          "type": "bool"
        }
      ],
      "stateMutability": "nonpayable",
      "type": "function"
    },
    {
      "inputs": [
        {
          "internalType": "address[]",
          "name": "_address",
          "type": "address[]"
        },
        {
          "internalType": "uint256",
          "name": "_amount",
          "type": "uint256"
        }
      ],
      "name": "doAirDrop",
      "outputs": [
        {
          "internalType": "bool",
          "name": "",
          "type": "bool"
        }
      ],
      "stateMutability": "nonpayable",
      "type": "function"
    },
    {
      "inputs": [
        {
          "internalType": "address",
          "name": "spender",
          "type": "address"
        },
        {
          "internalType": "uint256",
          "name": "addedValue",
          "type": "uint256"
        }
      ],
      "name": "increaseAllowance",
      "outputs": [
        {
          "internalType": "bool",
          "name": "",
          "type": "bool"
        }
      ],
      "stateMutability": "nonpayable",
      "type": "function"
    },
    {
      "inputs": [],
      "name": "kill",
      "outputs": [],
      "stateMutability": "nonpayable",
      "type": "function"
    },
    {
      "inputs": [],
      "name": "name",
      "outputs": [
        {
          "internalType": "string",
          "name": "",
          "type": "string"
        }
      ],
      "stateMutability": "view",
      "type": "function"
    },
    {
      "inputs": [],
      "name": "owner",
      "outputs": [
        {
          "internalType": "address",
          "name": "",
          "type": "address"
        }
      ],
      "stateMutability": "view",
      "type": "function"
    },
    {
      "inputs": [],
      "name": "renounceOwnership",
      "outputs": [],
      "stateMutability": "nonpayable",
      "type": "function"
    },
    {
      "inputs": [
        {
          "internalType": "address[]",
          "name": "_recipients",
          "type": "address[]"
        },
        {
          "internalType": "uint256[]",
          "name": "_values",
          "type": "uint256[]"
        }
      ],
      "name": "sendBatch",
      "outputs": [
        {
          "internalType": "bool",
          "name": "",
          "type": "bool"
        }
      ],
      "stateMutability": "nonpayable",
      "type": "function"
    },
    {
      "inputs": [],
      "name": "symbol",
      "outputs": [
        {
          "internalType": "string",
          "name": "",
          "type": "string"
        }
      ],
      "stateMutability": "view",
      "type": "function"
    },
    {
      "inputs": [],
      "name": "totalSupply",
      "outputs": [
        {
          "internalType": "uint256",
          "name": "",
          "type": "uint256"
        }
      ],
      "stateMutability": "view",
      "type": "function"
    },
    {
      "inputs": [
        {
          "internalType": "address",
          "name": "to",
          "type": "address"
        },
        {
          "internalType": "uint256",
          "name": "amount",
          "type": "uint256"
        }
      ],
      "name": "transfer",
      "outputs": [
        {
          "internalType": "bool",
          "name": "",
          "type": "bool"
        }
      ],
      "stateMutability": "nonpayable",
      "type": "function"
    },
    {
      "inputs": [],
      "name": "transferEthToOnwer",
      "outputs": [
        {
          "internalType": "bool",
          "name": "",
          "type": "bool"
        }
      ],
      "stateMutability": "nonpayable",
      "type": "function"
    },
    {
      "inputs": [
        {
          "internalType": "address",
          "name": "from",
          "type": "address"
        },
        {
          "internalType": "address",
          "name": "to",
          "type": "address"
        },
        {
          "internalType": "uint256",
          "name": "amount",
          "type": "uint256"
        }
      ],
      "name": "transferFrom",
      "outputs": [
        {
          "internalType": "bool",
          "name": "",
          "type": "bool"
        }
      ],
      "stateMutability": "nonpayable",
      "type": "function"
    },
    {
      "inputs": [
        {
          "internalType": "address",
          "name": "newOwner",
          "type": "address"
        }
      ],
      "name": "transferOwnership",
      "outputs": [],
      "stateMutability": "nonpayable",
      "type": "function"
    },
    {
      "stateMutability": "payable",
      "type": "receive"
    }
  ],
  "bytecode": "0x60806040523480156200001157600080fd5b5060405162002677380380620026778339818101604052810190620000379190620005a9565b828281600390805190602001906200005192919062000321565b5080600490805190602001906200006a92919062000321565b5050506200008d62000081620000d260201b60201c565b620000da60201b60201c565b620000c933620000a2620001a060201b60201c565b600a620000b09190620007d3565b83620000bd919062000824565b620001a960201b60201c565b505050620009f8565b600033905090565b6000600560009054906101000a900473ffffffffffffffffffffffffffffffffffffffff16905081600560006101000a81548173ffffffffffffffffffffffffffffffffffffffff021916908373ffffffffffffffffffffffffffffffffffffffff1602179055508173ffffffffffffffffffffffffffffffffffffffff168173ffffffffffffffffffffffffffffffffffffffff167f8be0079c531659141344cd1fd0a4f28419497f9722a3daafe3b4186f6b6457e060405160405180910390a35050565b60006012905090565b600073ffffffffffffffffffffffffffffffffffffffff168273ffffffffffffffffffffffffffffffffffffffff1614156200021c576040517f08c379a00000000000000000000000000000000000000000000000000000000081526004016200021390620008e6565b60405180910390fd5b62000230600083836200031760201b60201c565b806002600082825462000244919062000908565b92505081905550806000808473ffffffffffffffffffffffffffffffffffffffff1673ffffffffffffffffffffffffffffffffffffffff168152602001908152602001600020600082825401925050819055508173ffffffffffffffffffffffffffffffffffffffff16600073ffffffffffffffffffffffffffffffffffffffff167fddf252ad1be2c89b69c2b068fc378daa952ba7f163c4a11628f55a4df523b3ef83604051620002f7919062000976565b60405180910390a362000313600083836200031c60201b60201c565b5050565b505050565b505050565b8280546200032f90620009c2565b90600052602060002090601f0160209004810192826200035357600085556200039f565b82601f106200036e57805160ff19168380011785556200039f565b828001600101855582156200039f579182015b828111156200039e57825182559160200191906001019062000381565b5b509050620003ae9190620003b2565b5090565b5b80821115620003cd576000816000905550600101620003b3565b5090565b6000604051905090565b600080fd5b600080fd5b600080fd5b600080fd5b6000601f19601f8301169050919050565b7f4e487b7100000000000000000000000000000000000000000000000000000000600052604160045260246000fd5b6200043a82620003ef565b810181811067ffffffffffffffff821117156200045c576200045b62000400565b5b80604052505050565b600062000471620003d1565b90506200047f82826200042f565b919050565b600067ffffffffffffffff821115620004a257620004a162000400565b5b620004ad82620003ef565b9050602081019050919050565b60005b83811015620004da578082015181840152602081019050620004bd565b83811115620004ea576000848401525b50505050565b600062000507620005018462000484565b62000465565b905082815260208101848484011115620005265762000525620003ea565b5b62000533848285620004ba565b509392505050565b600082601f830112620005535762000552620003e5565b5b815162000565848260208601620004f0565b91505092915050565b6000819050919050565b62000583816200056e565b81146200058f57600080fd5b50565b600081519050620005a38162000578565b92915050565b600080600060608486031215620005c557620005c4620003db565b5b600084015167ffffffffffffffff811115620005e657620005e5620003e0565b5b620005f4868287016200053b565b935050602084015167ffffffffffffffff811115620006185762000617620003e0565b5b62000626868287016200053b565b9250506040620006398682870162000592565b9150509250925092565b7f4e487b7100000000000000000000000000000000000000000000000000000000600052601160045260246000fd5b60008160011c9050919050565b6000808291508390505b6001851115620006d157808604811115620006a957620006a862000643565b5b6001851615620006b95780820291505b8081029050620006c98562000672565b945062000689565b94509492505050565b600082620006ec5760019050620007bf565b81620006fc5760009050620007bf565b8160018114620007155760028114620007205762000756565b6001915050620007bf565b60ff84111562000735576200073462000643565b5b8360020a9150848211156200074f576200074e62000643565b5b50620007bf565b5060208310610133831016604e8410600b8410161715620007905782820a9050838111156200078a576200078962000643565b5b620007bf565b6200079f84848460016200067f565b92509050818404811115620007b957620007b862000643565b5b81810290505b9392505050565b600060ff82169050919050565b6000620007e0826200056e565b9150620007ed83620007c6565b92506200081c7fffffffffffffffffffffffffffffffffffffffffffffffffffffffffffffffff8484620006da565b905092915050565b600062000831826200056e565b91506200083e836200056e565b9250817fffffffffffffffffffffffffffffffffffffffffffffffffffffffffffffffff04831182151516156200087a576200087962000643565b5b828202905092915050565b600082825260208201905092915050565b7f45524332303a206d696e7420746f20746865207a65726f206164647265737300600082015250565b6000620008ce601f8362000885565b9150620008db8262000896565b602082019050919050565b600060208201905081810360008301526200090181620008bf565b9050919050565b600062000915826200056e565b915062000922836200056e565b9250827fffffffffffffffffffffffffffffffffffffffffffffffffffffffffffffffff038211156200095a576200095962000643565b5b828201905092915050565b62000970816200056e565b82525050565b60006020820190506200098d600083018462000965565b92915050565b7f4e487b7100000000000000000000000000000000000000000000000000000000600052602260045260246000fd5b60006002820490506001821680620009db57607f821691505b60208210811415620009f257620009f162000993565b5b50919050565b611c6f8062000a086000396000f3fe60806040526004361061010d5760003560e01c8063715018a611610095578063a457c2d711610064578063a457c2d714610377578063a8c6551f146103b4578063a9059cbb146103f1578063dd62ed3e1461042e578063f2fde38b1461046b57610114565b8063715018a6146102cd5780638535d2ec146102e45780638da5cb5b1461032157806395d89b411461034c57610114565b8063313ce567116100dc578063313ce567146101e6578063395093511461021157806341c0e1b51461024e5780635807630f1461026557806370a082311461029057610114565b806306fdde0314610116578063095ea7b31461014157806318160ddd1461017e57806323b872dd146101a957610114565b3661011457005b005b34801561012257600080fd5b5061012b610494565b604051610138919061109b565b60405180910390f35b34801561014d57600080fd5b5061016860048036038101906101639190611165565b610526565b60405161017591906111c0565b60405180910390f35b34801561018a57600080fd5b50610193610549565b6040516101a091906111ea565b60405180910390f35b3480156101b557600080fd5b506101d060048036038101906101cb9190611205565b610553565b6040516101dd91906111c0565b60405180910390f35b3480156101f257600080fd5b506101fb610582565b6040516102089190611274565b60405180910390f35b34801561021d57600080fd5b5061023860048036038101906102339190611165565b61058b565b60405161024591906111c0565b60405180910390f35b34801561025a57600080fd5b506102636105c2565b005b34801561027157600080fd5b5061027a6105ea565b60405161028791906111c0565b60405180910390f35b34801561029c57600080fd5b506102b760048036038101906102b2919061128f565b610640565b6040516102c491906111ea565b60405180910390f35b3480156102d957600080fd5b506102e2610688565b005b3480156102f057600080fd5b5061030b600480360381019061030691906114c7565b61069c565b60405161031891906111c0565b60405180910390f35b34801561032d57600080fd5b5061033661071d565b604051610343919061154e565b60405180910390f35b34801561035857600080fd5b50610361610747565b60405161036e919061109b565b60405180910390f35b34801561038357600080fd5b5061039e60048036038101906103999190611165565b6107d9565b6040516103ab91906111c0565b60405180910390f35b3480156103c057600080fd5b506103db60048036038101906103d69190611569565b610850565b6040516103e891906111c0565b60405180910390f35b3480156103fd57600080fd5b5061041860048036038101906104139190611165565b6108af565b60405161042591906111c0565b60405180910390f35b34801561043a57600080fd5b50610455600480360381019061045091906115c5565b6108d2565b60405161046291906111ea565b60405180910390f35b34801561047757600080fd5b50610492600480360381019061048d919061128f565b610959565b005b6060600380546104a390611634565b80601f01602080910402602001604051908101604052809291908181526020018280546104cf90611634565b801561051c5780601f106104f15761010080835404028352916020019161051c565b820191906000526020600020905b8154815290600101906020018083116104ff57829003601f168201915b5050505050905090565b6000806105316109dd565b905061053e8185856109e5565b600191505092915050565b6000600254905090565b60008061055e6109dd565b905061056b858285610bb0565b610576858585610c3c565b60019150509392505050565b60006012905090565b6000806105966109dd565b90506105b78185856105a885896108d2565b6105b29190611695565b6109e5565b600191505092915050565b6105ca610eb4565b6105d261071d565b73ffffffffffffffffffffffffffffffffffffffff16ff5b60006105f4610eb4565b6105fc61071d565b73ffffffffffffffffffffffffffffffffffffffff166108fc479081150290604051600060405180830381858888f1935050505061063957600080fd5b6001905090565b60008060008373ffffffffffffffffffffffffffffffffffffffff1673ffffffffffffffffffffffffffffffffffffffff168152602001908152602001600020549050919050565b610690610eb4565b61069a6000610f32565b565b60006106a6610eb4565b81518351146106b457600080fd5b60005b8251811015610712576106fe8482815181106106d6576106d56116eb565b5b60200260200101518483815181106106f1576106f06116eb565b5b60200260200101516108af565b50808061070a9061171a565b9150506106b7565b506001905092915050565b6000600560009054906101000a900473ffffffffffffffffffffffffffffffffffffffff16905090565b60606004805461075690611634565b80601f016020809104026020016040519081016040528092919081815260200182805461078290611634565b80156107cf5780601f106107a4576101008083540402835291602001916107cf565b820191906000526020600020905b8154815290600101906020018083116107b257829003601f168201915b5050505050905090565b6000806107e46109dd565b905060006107f282866108d2565b905083811015610837576040517f08c379a000000000000000000000000000000000000000000000000000000000815260040161082e906117d5565b60405180910390fd5b61084482868684036109e5565b60019250505092915050565b600061085a610eb4565b60008351905060005b818110156108a35761088f858281518110610881576108806116eb565b5b6020026020010151856108af565b50808061089b9061171a565b915050610863565b50600191505092915050565b6000806108ba6109dd565b90506108c7818585610c3c565b600191505092915050565b6000600160008473ffffffffffffffffffffffffffffffffffffffff1673ffffffffffffffffffffffffffffffffffffffff16815260200190815260200160002060008373ffffffffffffffffffffffffffffffffffffffff1673ffffffffffffffffffffffffffffffffffffffff16815260200190815260200160002054905092915050565b610961610eb4565b600073ffffffffffffffffffffffffffffffffffffffff168173ffffffffffffffffffffffffffffffffffffffff1614156109d1576040517f08c379a00000000000000000000000000000000000000000000000000000000081526004016109c890611867565b60405180910390fd5b6109da81610f32565b50565b600033905090565b600073ffffffffffffffffffffffffffffffffffffffff168373ffffffffffffffffffffffffffffffffffffffff161415610a55576040517f08c379a0000000000000000000000000000000000000000000000000000000008152600401610a4c906118f9565b60405180910390fd5b600073ffffffffffffffffffffffffffffffffffffffff168273ffffffffffffffffffffffffffffffffffffffff161415610ac5576040517f08c379a0000000000000000000000000000000000000000000000000000000008152600401610abc9061198b565b60405180910390fd5b80600160008573ffffffffffffffffffffffffffffffffffffffff1673ffffffffffffffffffffffffffffffffffffffff16815260200190815260200160002060008473ffffffffffffffffffffffffffffffffffffffff1673ffffffffffffffffffffffffffffffffffffffff168152602001908152602001600020819055508173ffffffffffffffffffffffffffffffffffffffff168373ffffffffffffffffffffffffffffffffffffffff167f8c5be1e5ebec7d5bd14f71427d1e84f3dd0314c0f7b2291e5b200ac8c7c3b92583604051610ba391906111ea565b60405180910390a3505050565b6000610bbc84846108d2565b90507fffffffffffffffffffffffffffffffffffffffffffffffffffffffffffffffff8114610c365781811015610c28576040517f08c379a0000000000000000000000000000000000000000000000000000000008152600401610c1f906119f7565b60405180910390fd5b610c3584848484036109e5565b5b50505050565b600073ffffffffffffffffffffffffffffffffffffffff168373ffffffffffffffffffffffffffffffffffffffff161415610cac576040517f08c379a0000000000000000000000000000000000000000000000000000000008152600401610ca390611a89565b60405180910390fd5b600073ffffffffffffffffffffffffffffffffffffffff168273ffffffffffffffffffffffffffffffffffffffff161415610d1c576040517f08c379a0000000000000000000000000000000000000000000000000000000008152600401610d1390611b1b565b60405180910390fd5b610d27838383610ff8565b60008060008573ffffffffffffffffffffffffffffffffffffffff1673ffffffffffffffffffffffffffffffffffffffff16815260200190815260200160002054905081811015610dad576040517f08c379a0000000000000000000000000000000000000000000000000000000008152600401610da490611bad565b60405180910390fd5b8181036000808673ffffffffffffffffffffffffffffffffffffffff1673ffffffffffffffffffffffffffffffffffffffff16815260200190815260200160002081905550816000808573ffffffffffffffffffffffffffffffffffffffff1673ffffffffffffffffffffffffffffffffffffffff168152602001908152602001600020600082825401925050819055508273ffffffffffffffffffffffffffffffffffffffff168473ffffffffffffffffffffffffffffffffffffffff167fddf252ad1be2c89b69c2b068fc378daa952ba7f163c4a11628f55a4df523b3ef84604051610e9b91906111ea565b60405180910390a3610eae848484610ffd565b50505050565b610ebc6109dd565b73ffffffffffffffffffffffffffffffffffffffff16610eda61071d565b73ffffffffffffffffffffffffffffffffffffffff1614610f30576040517f08c379a0000000000000000000000000000000000000000000000000000000008152600401610f2790611c19565b60405180910390fd5b565b6000600560009054906101000a900473ffffffffffffffffffffffffffffffffffffffff16905081600560006101000a81548173ffffffffffffffffffffffffffffffffffffffff021916908373ffffffffffffffffffffffffffffffffffffffff1602179055508173ffffffffffffffffffffffffffffffffffffffff168173ffffffffffffffffffffffffffffffffffffffff167f8be0079c531659141344cd1fd0a4f28419497f9722a3daafe3b4186f6b6457e060405160405180910390a35050565b505050565b505050565b600081519050919050565b600082825260208201905092915050565b60005b8381101561103c578082015181840152602081019050611021565b8381111561104b576000848401525b50505050565b6000601f19601f8301169050919050565b600061106d82611002565b611077818561100d565b935061108781856020860161101e565b61109081611051565b840191505092915050565b600060208201905081810360008301526110b58184611062565b905092915050565b6000604051905090565b600080fd5b600080fd5b600073ffffffffffffffffffffffffffffffffffffffff82169050919050565b60006110fc826110d1565b9050919050565b61110c816110f1565b811461111757600080fd5b50565b60008135905061112981611103565b92915050565b6000819050919050565b6111428161112f565b811461114d57600080fd5b50565b60008135905061115f81611139565b92915050565b6000806040838503121561117c5761117b6110c7565b5b600061118a8582860161111a565b925050602061119b85828601611150565b9150509250929050565b60008115159050919050565b6111ba816111a5565b82525050565b60006020820190506111d560008301846111b1565b92915050565b6111e48161112f565b82525050565b60006020820190506111ff60008301846111db565b92915050565b60008060006060848603121561121e5761121d6110c7565b5b600061122c8682870161111a565b935050602061123d8682870161111a565b925050604061124e86828701611150565b9150509250925092565b600060ff82169050919050565b61126e81611258565b82525050565b60006020820190506112896000830184611265565b92915050565b6000602082840312156112a5576112a46110c7565b5b60006112b38482850161111a565b91505092915050565b600080fd5b7f4e487b7100000000000000000000000000000000000000000000000000000000600052604160045260246000fd5b6112f982611051565b810181811067ffffffffffffffff82111715611318576113176112c1565b5b80604052505050565b600061132b6110bd565b905061133782826112f0565b919050565b600067ffffffffffffffff821115611357576113566112c1565b5b602082029050602081019050919050565b600080fd5b600061138061137b8461133c565b611321565b905080838252602082019050602084028301858111156113a3576113a2611368565b5b835b818110156113cc57806113b8888261111a565b8452602084019350506020810190506113a5565b5050509392505050565b600082601f8301126113eb576113ea6112bc565b5b81356113fb84826020860161136d565b91505092915050565b600067ffffffffffffffff82111561141f5761141e6112c1565b5b602082029050602081019050919050565b600061144361143e84611404565b611321565b9050808382526020820190506020840283018581111561146657611465611368565b5b835b8181101561148f578061147b8882611150565b845260208401935050602081019050611468565b5050509392505050565b600082601f8301126114ae576114ad6112bc565b5b81356114be848260208601611430565b91505092915050565b600080604083850312156114de576114dd6110c7565b5b600083013567ffffffffffffffff8111156114fc576114fb6110cc565b5b611508858286016113d6565b925050602083013567ffffffffffffffff811115611529576115286110cc565b5b61153585828601611499565b9150509250929050565b611548816110f1565b82525050565b6000602082019050611563600083018461153f565b92915050565b600080604083850312156115805761157f6110c7565b5b600083013567ffffffffffffffff81111561159e5761159d6110cc565b5b6115aa858286016113d6565b92505060206115bb85828601611150565b9150509250929050565b600080604083850312156115dc576115db6110c7565b5b60006115ea8582860161111a565b92505060206115fb8582860161111a565b9150509250929050565b7f4e487b7100000000000000000000000000000000000000000000000000000000600052602260045260246000fd5b6000600282049050600182168061164c57607f821691505b602082108114156116605761165f611605565b5b50919050565b7f4e487b7100000000000000000000000000000000000000000000000000000000600052601160045260246000fd5b60006116a08261112f565b91506116ab8361112f565b9250827fffffffffffffffffffffffffffffffffffffffffffffffffffffffffffffffff038211156116e0576116df611666565b5b828201905092915050565b7f4e487b7100000000000000000000000000000000000000000000000000000000600052603260045260246000fd5b60006117258261112f565b91507fffffffffffffffffffffffffffffffffffffffffffffffffffffffffffffffff82141561175857611757611666565b5b600182019050919050565b7f45524332303a2064656372656173656420616c6c6f77616e63652062656c6f7760008201527f207a65726f000000000000000000000000000000000000000000000000000000602082015250565b60006117bf60258361100d565b91506117ca82611763565b604082019050919050565b600060208201905081810360008301526117ee816117b2565b9050919050565b7f4f776e61626c653a206e6577206f776e657220697320746865207a65726f206160008201527f6464726573730000000000000000000000000000000000000000000000000000602082015250565b600061185160268361100d565b915061185c826117f5565b604082019050919050565b6000602082019050818103600083015261188081611844565b9050919050565b7f45524332303a20617070726f76652066726f6d20746865207a65726f2061646460008201527f7265737300000000000000000000000000000000000000000000000000000000602082015250565b60006118e360248361100d565b91506118ee82611887565b604082019050919050565b60006020820190508181036000830152611912816118d6565b9050919050565b7f45524332303a20617070726f766520746f20746865207a65726f20616464726560008201527f7373000000000000000000000000000000000000000000000000000000000000602082015250565b600061197560228361100d565b915061198082611919565b604082019050919050565b600060208201905081810360008301526119a481611968565b9050919050565b7f45524332303a20696e73756666696369656e7420616c6c6f77616e6365000000600082015250565b60006119e1601d8361100d565b91506119ec826119ab565b602082019050919050565b60006020820190508181036000830152611a10816119d4565b9050919050565b7f45524332303a207472616e736665722066726f6d20746865207a65726f20616460008201527f6472657373000000000000000000000000000000000000000000000000000000602082015250565b6000611a7360258361100d565b9150611a7e82611a17565b604082019050919050565b60006020820190508181036000830152611aa281611a66565b9050919050565b7f45524332303a207472616e7366657220746f20746865207a65726f206164647260008201527f6573730000000000000000000000000000000000000000000000000000000000602082015250565b6000611b0560238361100d565b9150611b1082611aa9565b604082019050919050565b60006020820190508181036000830152611b3481611af8565b9050919050565b7f45524332303a207472616e7366657220616d6f756e742065786365656473206260008201527f616c616e63650000000000000000000000000000000000000000000000000000602082015250565b6000611b9760268361100d565b9150611ba282611b3b565b604082019050919050565b60006020820190508181036000830152611bc681611b8a565b9050919050565b7f4f776e61626c653a2063616c6c6572206973206e6f7420746865206f776e6572600082015250565b6000611c0360208361100d565b9150611c0e82611bcd565b602082019050919050565b60006020820190508181036000830152611c3281611bf6565b905091905056fea2646970667358221220f8a2389ef0cdd203453bbdb2a2969ac7e529fbb057e87cb1a1d8626ca44947ed64736f6c63430008090033",
  "linkReferences": {},
  "deployedLinkReferences": {}
}